{
	"src/Arrays/dynamic.sol": {
		"DynamicArray": {
			"abi": [
				{
					"inputs": [],
					"stateMutability": "nonpayable",
					"type": "constructor"
				},
				{
					"inputs": [
						{
							"internalType": "uint256",
							"name": "data",
							"type": "uint256"
						}
					],
					"name": "addArr",
					"outputs": [],
					"stateMutability": "nonpayable",
					"type": "function"
				},
				{
					"inputs": [],
					"name": "readAll",
					"outputs": [
						{
							"internalType": "uint256[]",
							"name": "ret",
							"type": "uint256[]"
						}
					],
					"stateMutability": "view",
					"type": "function"
				},
				{
					"inputs": [
						{
							"internalType": "uint256",
							"name": "index",
							"type": "uint256"
						}
					],
					"name": "readArr",
					"outputs": [
						{
							"internalType": "uint256",
							"name": "ret",
							"type": "uint256"
						}
					],
					"stateMutability": "view",
					"type": "function"
				}
			],
			"devdoc": {
				"kind": "dev",
				"methods": {},
				"version": 1
			},
			"evm": {
				"assembly": "    /* \"src/Arrays/dynamic.sol\":57:2861  contract DynamicArray {... */\n  mstore(0x40, 0x80)\n    /* \"src/Arrays/dynamic.sol\":117:176  constructor() {... */\n  callvalue\n  dup1\n  iszero\n  tag_1\n  jumpi\n  revert(0x00, 0x00)\ntag_1:\n  pop\n    /* \"src/Arrays/dynamic.sol\":141:169  values = [1, 2, 34, 56, 785] */\n  mload(0x40)\n  dup1\n  0xa0\n  add\n  0x40\n  mstore\n  dup1\n    /* \"src/Arrays/dynamic.sol\":151:152  1 */\n  0x01\n    /* \"src/Arrays/dynamic.sol\":141:169  values = [1, 2, 34, 56, 785] */\n  0xffff\n  and\n  dup2\n  mstore\n  0x20\n  add\n    /* \"src/Arrays/dynamic.sol\":154:155  2 */\n  0x02\n    /* \"src/Arrays/dynamic.sol\":141:169  values = [1, 2, 34, 56, 785] */\n  0xffff\n  and\n  dup2\n  mstore\n  0x20\n  add\n    /* \"src/Arrays/dynamic.sol\":157:159  34 */\n  0x22\n    /* \"src/Arrays/dynamic.sol\":141:169  values = [1, 2, 34, 56, 785] */\n  0xffff\n  and\n  dup2\n  mstore\n  0x20\n  add\n    /* \"src/Arrays/dynamic.sol\":161:163  56 */\n  0x38\n    /* \"src/Arrays/dynamic.sol\":141:169  values = [1, 2, 34, 56, 785] */\n  0xffff\n  and\n  dup2\n  mstore\n  0x20\n  add\n    /* \"src/Arrays/dynamic.sol\":165:168  785 */\n  0x0311\n    /* \"src/Arrays/dynamic.sol\":141:169  values = [1, 2, 34, 56, 785] */\n  0xffff\n  and\n  dup2\n  mstore\n  pop\n    /* \"src/Arrays/dynamic.sol\":141:147  values */\n  0x00\n    /* \"src/Arrays/dynamic.sol\":141:169  values = [1, 2, 34, 56, 785] */\n  swap1\n  0x05\n  tag_4\n  swap3\n  swap2\n  swap1\n  tag_5\n  jump\t// in\ntag_4:\n  pop\n    /* \"src/Arrays/dynamic.sol\":57:2861  contract DynamicArray {... */\n  jump(tag_6)\ntag_5:\n  dup3\n  dup1\n  sload\n  dup3\n  dup3\n  sstore\n  swap1\n  0x00\n  mstore\n  keccak256(0x00, 0x20)\n  swap1\n  dup2\n  add\n  swap3\n  dup3\n  iszero\n  tag_7\n  jumpi\n  swap2\n  0x20\n  mul\n  dup3\n  add\ntag_8:\n  dup3\n  dup2\n  gt\n  iszero\n  tag_9\n  jumpi\n  dup3\n  mload\n  dup3\n  swap1\n  0xffff\n  and\n  swap1\n  sstore\n  swap2\n  0x20\n  add\n  swap2\n  swap1\n  0x01\n  add\n  swap1\n  jump(tag_8)\ntag_9:\ntag_7:\n  pop\n  swap1\n  pop\n  tag_10\n  swap2\n  swap1\n  tag_11\n  jump\t// in\ntag_10:\n  pop\n  swap1\n  jump\t// out\ntag_11:\ntag_12:\n  dup1\n  dup3\n  gt\n  iszero\n  tag_13\n  jumpi\n  0x00\n  dup2\n  0x00\n  swap1\n  sstore\n  pop\n  0x01\n  add\n  jump(tag_12)\ntag_13:\n  pop\n  swap1\n  jump\t// out\ntag_6:\n  dataSize(sub_0)\n  dup1\n  dataOffset(sub_0)\n  0x00\n  codecopy\n  0x00\n  return\nstop\n\nsub_0: assembly {\n        /* \"src/Arrays/dynamic.sol\":57:2861  contract DynamicArray {... */\n      mstore(0x40, 0x80)\n      callvalue\n      dup1\n      iszero\n      tag_1\n      jumpi\n      revert(0x00, 0x00)\n    tag_1:\n      pop\n      jumpi(tag_2, lt(calldatasize, 0x04))\n      shr(0xe0, calldataload(0x00))\n      dup1\n      0x1cee0a18\n      eq\n      tag_3\n      jumpi\n      dup1\n      0x41f654f7\n      eq\n      tag_4\n      jumpi\n      dup1\n      0xfb92315a\n      eq\n      tag_5\n      jumpi\n    tag_2:\n      revert(0x00, 0x00)\n        /* \"src/Arrays/dynamic.sol\":259:786  function readArr(uint256 index) public view returns (uint256 ret) {... */\n    tag_3:\n      tag_6\n      0x04\n      dup1\n      calldatasize\n      sub\n      dup2\n      add\n      swap1\n      tag_7\n      swap2\n      swap1\n      tag_8\n      jump\t// in\n    tag_7:\n      tag_9\n      jump\t// in\n    tag_6:\n      mload(0x40)\n      tag_10\n      swap2\n      swap1\n      tag_11\n      jump\t// in\n    tag_10:\n      mload(0x40)\n      dup1\n      swap2\n      sub\n      swap1\n      return\n        /* \"src/Arrays/dynamic.sol\":1854:2859  function readAll() public view returns (uint256[] memory ret) {... */\n    tag_4:\n      tag_12\n      tag_13\n      jump\t// in\n    tag_12:\n      mload(0x40)\n      tag_14\n      swap2\n      swap1\n      tag_15\n      jump\t// in\n    tag_14:\n      mload(0x40)\n      dup1\n      swap2\n      sub\n      swap1\n      return\n        /* \"src/Arrays/dynamic.sol\":792:1768  function addArr(uint256 data) public {... */\n    tag_5:\n      tag_16\n      0x04\n      dup1\n      calldatasize\n      sub\n      dup2\n      add\n      swap1\n      tag_17\n      swap2\n      swap1\n      tag_8\n      jump\t// in\n    tag_17:\n      tag_18\n      jump\t// in\n    tag_16:\n      stop\n        /* \"src/Arrays/dynamic.sol\":259:786  function readArr(uint256 index) public view returns (uint256 ret) {... */\n    tag_9:\n        /* \"src/Arrays/dynamic.sol\":312:323  uint256 ret */\n      0x00\n        /* \"src/Arrays/dynamic.sol\":335:347  uint256 slot */\n      0x00\n        /* \"src/Arrays/dynamic.sol\":388:399  values.slot */\n      0x00\n        /* \"src/Arrays/dynamic.sol\":380:399  slot := values.slot */\n      swap1\n      pop\n        /* \"src/Arrays/dynamic.sol\":656:672  bytes32 location */\n      0x00\n        /* \"src/Arrays/dynamic.sol\":696:700  slot */\n      dup2\n        /* \"src/Arrays/dynamic.sol\":685:701  abi.encode(slot) */\n      add(0x20, mload(0x40))\n      tag_20\n      swap2\n      swap1\n      tag_11\n      jump\t// in\n    tag_20:\n      mload(0x40)\n      0x20\n      dup2\n      dup4\n      sub\n      sub\n      dup2\n      mstore\n      swap1\n      0x40\n      mstore\n        /* \"src/Arrays/dynamic.sol\":675:702  keccak256(abi.encode(slot)) */\n      dup1\n      mload\n      swap1\n      0x20\n      add\n      keccak256\n        /* \"src/Arrays/dynamic.sol\":656:702  bytes32 location = keccak256(abi.encode(slot)) */\n      swap1\n      pop\n        /* \"src/Arrays/dynamic.sol\":763:768  index */\n      dup4\n        /* \"src/Arrays/dynamic.sol\":753:761  location */\n      dup2\n        /* \"src/Arrays/dynamic.sol\":749:769  add(location, index) */\n      add\n        /* \"src/Arrays/dynamic.sol\":743:770  sload(add(location, index)) */\n      sload\n        /* \"src/Arrays/dynamic.sol\":736:770  ret := sload(add(location, index)) */\n      swap3\n      pop\n        /* \"src/Arrays/dynamic.sol\":722:780  {... */\n      pop\n      pop\n        /* \"src/Arrays/dynamic.sol\":259:786  function readArr(uint256 index) public view returns (uint256 ret) {... */\n      swap2\n      swap1\n      pop\n      jump\t// out\n        /* \"src/Arrays/dynamic.sol\":1854:2859  function readAll() public view returns (uint256[] memory ret) {... */\n    tag_13:\n        /* \"src/Arrays/dynamic.sol\":1894:1914  uint256[] memory ret */\n      0x60\n        /* \"src/Arrays/dynamic.sol\":1926:1938  uint256 slot */\n      0x00\n        /* \"src/Arrays/dynamic.sol\":1979:1990  values.slot */\n      0x00\n        /* \"src/Arrays/dynamic.sol\":1971:1990  slot := values.slot */\n      swap1\n      pop\n        /* \"src/Arrays/dynamic.sol\":2077:2088  uint256 len */\n      0x00\n        /* \"src/Arrays/dynamic.sol\":2134:2138  slot */\n      dup2\n        /* \"src/Arrays/dynamic.sol\":2128:2139  sload(slot) */\n      sload\n        /* \"src/Arrays/dynamic.sol\":2121:2139  len := sload(slot) */\n      swap1\n      pop\n        /* \"src/Arrays/dynamic.sol\":2290:2293  len */\n      dup1\n        /* \"src/Arrays/dynamic.sol\":2276:2294  new uint256[](len) */\n      0xffffffffffffffff\n      dup2\n      gt\n      iszero\n      tag_22\n      jumpi\n      tag_23\n      tag_24\n      jump\t// in\n    tag_23:\n    tag_22:\n      mload(0x40)\n      swap1\n      dup1\n      dup3\n      mstore\n      dup1\n      0x20\n      mul\n      0x20\n      add\n      dup3\n      add\n      0x40\n      mstore\n      dup1\n      iszero\n      tag_25\n      jumpi\n      dup2\n      0x20\n      add\n      0x20\n      dup3\n      mul\n      dup1\n      calldatasize\n      dup4\n      calldatacopy\n      dup1\n      dup3\n      add\n      swap2\n      pop\n      pop\n      swap1\n      pop\n    tag_25:\n      pop\n        /* \"src/Arrays/dynamic.sol\":2270:2294  ret = new uint256[](len) */\n      swap3\n      pop\n        /* \"src/Arrays/dynamic.sol\":2429:2445  bytes32 location */\n      0x00\n        /* \"src/Arrays/dynamic.sol\":2469:2473  slot */\n      dup3\n        /* \"src/Arrays/dynamic.sol\":2458:2474  abi.encode(slot) */\n      add(0x20, mload(0x40))\n      tag_26\n      swap2\n      swap1\n      tag_11\n      jump\t// in\n    tag_26:\n      mload(0x40)\n      0x20\n      dup2\n      dup4\n      sub\n      sub\n      dup2\n      mstore\n      swap1\n      0x40\n      mstore\n        /* \"src/Arrays/dynamic.sol\":2448:2475  keccak256(abi.encode(slot)) */\n      dup1\n      mload\n      swap1\n      0x20\n      add\n      keccak256\n        /* \"src/Arrays/dynamic.sol\":2429:2475  bytes32 location = keccak256(abi.encode(slot)) */\n      swap1\n      pop\n        /* \"src/Arrays/dynamic.sol\":2539:2540  0 */\n      0x00\n        /* \"src/Arrays/dynamic.sol\":2508:2843  for {... */\n    tag_27:\n        /* \"src/Arrays/dynamic.sol\":2561:2564  len */\n      dup3\n        /* \"src/Arrays/dynamic.sol\":2558:2559  i */\n      dup2\n        /* \"src/Arrays/dynamic.sol\":2555:2565  lt(i, len) */\n      lt\n        /* \"src/Arrays/dynamic.sol\":2508:2843  for {... */\n      iszero\n      tag_29\n      jumpi\n        /* \"src/Arrays/dynamic.sol\":2663:2664  i */\n      dup1\n        /* \"src/Arrays/dynamic.sol\":2653:2661  location */\n      dup3\n        /* \"src/Arrays/dynamic.sol\":2649:2665  add(location, i) */\n      add\n        /* \"src/Arrays/dynamic.sol\":2643:2666  sload(add(location, i)) */\n      sload\n        /* \"src/Arrays/dynamic.sol\":2752:2756  data */\n      dup1\n        /* \"src/Arrays/dynamic.sol\":2745:2747  32 */\n      0x20\n        /* \"src/Arrays/dynamic.sol\":2742:2743  i */\n      dup4\n        /* \"src/Arrays/dynamic.sol\":2738:2748  mul(i, 32) */\n      mul\n        /* \"src/Arrays/dynamic.sol\":2734:2736  32 */\n      0x20\n        /* \"src/Arrays/dynamic.sol\":2730:2749  add(32, mul(i, 32)) */\n      add\n        /* \"src/Arrays/dynamic.sol\":2725:2728  ret */\n      dup8\n        /* \"src/Arrays/dynamic.sol\":2721:2750  add(ret, add(32, mul(i, 32))) */\n      add\n        /* \"src/Arrays/dynamic.sol\":2714:2757  mstore(add(ret, add(32, mul(i, 32))), data) */\n      mstore\n        /* \"src/Arrays/dynamic.sol\":2613:2843  {... */\n      pop\n        /* \"src/Arrays/dynamic.sol\":2596:2597  1 */\n      0x01\n        /* \"src/Arrays/dynamic.sol\":2593:2594  i */\n      dup2\n        /* \"src/Arrays/dynamic.sol\":2589:2598  add(i, 1) */\n      add\n        /* \"src/Arrays/dynamic.sol\":2584:2598  i := add(i, 1) */\n      swap1\n      pop\n        /* \"src/Arrays/dynamic.sol\":2508:2843  for {... */\n      jump(tag_27)\n    tag_29:\n        /* \"src/Arrays/dynamic.sol\":2512:2554  {... */\n      pop\n        /* \"src/Arrays/dynamic.sol\":2494:2853  {... */\n      pop\n      pop\n      pop\n        /* \"src/Arrays/dynamic.sol\":1854:2859  function readAll() public view returns (uint256[] memory ret) {... */\n      swap1\n      jump\t// out\n        /* \"src/Arrays/dynamic.sol\":792:1768  function addArr(uint256 data) public {... */\n    tag_18:\n        /* \"src/Arrays/dynamic.sol\":839:852  uint256 slot1 */\n      0x00\n        /* \"src/Arrays/dynamic.sol\":974:985  values.slot */\n      0x00\n        /* \"src/Arrays/dynamic.sol\":965:985  slot1 := values.slot */\n      swap1\n      pop\n        /* \"src/Arrays/dynamic.sol\":1107:1118  uint256 len */\n      0x00\n        /* \"src/Arrays/dynamic.sol\":1165:1170  slot1 */\n      dup2\n        /* \"src/Arrays/dynamic.sol\":1159:1171  sload(slot1) */\n      sload\n        /* \"src/Arrays/dynamic.sol\":1152:1171  len := sload(slot1) */\n      swap1\n      pop\n        /* \"src/Arrays/dynamic.sol\":1304:1315  bytes32 loc */\n      0x00\n        /* \"src/Arrays/dynamic.sol\":1339:1344  slot1 */\n      dup3\n        /* \"src/Arrays/dynamic.sol\":1328:1345  abi.encode(slot1) */\n      add(0x20, mload(0x40))\n      tag_31\n      swap2\n      swap1\n      tag_11\n      jump\t// in\n    tag_31:\n      mload(0x40)\n      0x20\n      dup2\n      dup4\n      sub\n      sub\n      dup2\n      mstore\n      swap1\n      0x40\n      mstore\n        /* \"src/Arrays/dynamic.sol\":1318:1346  keccak256(abi.encode(slot1)) */\n      dup1\n      mload\n      swap1\n      0x20\n      add\n      keccak256\n        /* \"src/Arrays/dynamic.sol\":1304:1346  bytes32 loc = keccak256(abi.encode(slot1)) */\n      swap1\n      pop\n        /* \"src/Arrays/dynamic.sol\":1516:1520  data */\n      dup4\n        /* \"src/Arrays/dynamic.sol\":1510:1513  len */\n      dup3\n        /* \"src/Arrays/dynamic.sol\":1505:1508  loc */\n      dup3\n        /* \"src/Arrays/dynamic.sol\":1501:1514  add(loc, len) */\n      add\n        /* \"src/Arrays/dynamic.sol\":1494:1521  sstore(add(loc, len), data) */\n      sstore\n        /* \"src/Arrays/dynamic.sol\":1686:1687  1 */\n      0x01\n        /* \"src/Arrays/dynamic.sol\":1681:1684  len */\n      dup3\n        /* \"src/Arrays/dynamic.sol\":1677:1688  add(len, 1) */\n      add\n        /* \"src/Arrays/dynamic.sol\":1670:1675  slot1 */\n      dup4\n        /* \"src/Arrays/dynamic.sol\":1663:1689  sstore(slot1, add(len, 1)) */\n      sstore\n        /* \"src/Arrays/dynamic.sol\":1649:1762  {... */\n      pop\n      pop\n      pop\n        /* \"src/Arrays/dynamic.sol\":792:1768  function addArr(uint256 data) public {... */\n      pop\n      jump\t// out\n        /* \"#utility.yul\":88:205   */\n    tag_33:\n        /* \"#utility.yul\":197:198   */\n      0x00\n        /* \"#utility.yul\":194:195   */\n      0x00\n        /* \"#utility.yul\":187:199   */\n      revert\n        /* \"#utility.yul\":334:411   */\n    tag_35:\n        /* \"#utility.yul\":371:378   */\n      0x00\n        /* \"#utility.yul\":400:405   */\n      dup2\n        /* \"#utility.yul\":389:405   */\n      swap1\n      pop\n        /* \"#utility.yul\":334:411   */\n      swap2\n      swap1\n      pop\n      jump\t// out\n        /* \"#utility.yul\":417:539   */\n    tag_36:\n        /* \"#utility.yul\":490:514   */\n      tag_52\n        /* \"#utility.yul\":508:513   */\n      dup2\n        /* \"#utility.yul\":490:514   */\n      tag_35\n      jump\t// in\n    tag_52:\n        /* \"#utility.yul\":483:488   */\n      dup2\n        /* \"#utility.yul\":480:515   */\n      eq\n        /* \"#utility.yul\":470:533   */\n      tag_53\n      jumpi\n        /* \"#utility.yul\":529:530   */\n      0x00\n        /* \"#utility.yul\":526:527   */\n      0x00\n        /* \"#utility.yul\":519:531   */\n      revert\n        /* \"#utility.yul\":470:533   */\n    tag_53:\n        /* \"#utility.yul\":417:539   */\n      pop\n      jump\t// out\n        /* \"#utility.yul\":545:684   */\n    tag_37:\n        /* \"#utility.yul\":591:596   */\n      0x00\n        /* \"#utility.yul\":629:635   */\n      dup2\n        /* \"#utility.yul\":616:636   */\n      calldataload\n        /* \"#utility.yul\":607:636   */\n      swap1\n      pop\n        /* \"#utility.yul\":645:678   */\n      tag_55\n        /* \"#utility.yul\":672:677   */\n      dup2\n        /* \"#utility.yul\":645:678   */\n      tag_36\n      jump\t// in\n    tag_55:\n        /* \"#utility.yul\":545:684   */\n      swap3\n      swap2\n      pop\n      pop\n      jump\t// out\n        /* \"#utility.yul\":690:1019   */\n    tag_8:\n        /* \"#utility.yul\":749:755   */\n      0x00\n        /* \"#utility.yul\":798:800   */\n      0x20\n        /* \"#utility.yul\":786:795   */\n      dup3\n        /* \"#utility.yul\":777:784   */\n      dup5\n        /* \"#utility.yul\":773:796   */\n      sub\n        /* \"#utility.yul\":769:801   */\n      slt\n        /* \"#utility.yul\":766:885   */\n      iszero\n      tag_57\n      jumpi\n        /* \"#utility.yul\":804:883   */\n      tag_58\n      tag_33\n      jump\t// in\n    tag_58:\n        /* \"#utility.yul\":766:885   */\n    tag_57:\n        /* \"#utility.yul\":924:925   */\n      0x00\n        /* \"#utility.yul\":949:1002   */\n      tag_59\n        /* \"#utility.yul\":994:1001   */\n      dup5\n        /* \"#utility.yul\":985:991   */\n      dup3\n        /* \"#utility.yul\":974:983   */\n      dup6\n        /* \"#utility.yul\":970:992   */\n      add\n        /* \"#utility.yul\":949:1002   */\n      tag_37\n      jump\t// in\n    tag_59:\n        /* \"#utility.yul\":939:1002   */\n      swap2\n      pop\n        /* \"#utility.yul\":895:1012   */\n      pop\n        /* \"#utility.yul\":690:1019   */\n      swap3\n      swap2\n      pop\n      pop\n      jump\t// out\n        /* \"#utility.yul\":1025:1143   */\n    tag_38:\n        /* \"#utility.yul\":1112:1136   */\n      tag_61\n        /* \"#utility.yul\":1130:1135   */\n      dup2\n        /* \"#utility.yul\":1112:1136   */\n      tag_35\n      jump\t// in\n    tag_61:\n        /* \"#utility.yul\":1107:1110   */\n      dup3\n        /* \"#utility.yul\":1100:1137   */\n      mstore\n        /* \"#utility.yul\":1025:1143   */\n      pop\n      pop\n      jump\t// out\n        /* \"#utility.yul\":1149:1371   */\n    tag_11:\n        /* \"#utility.yul\":1242:1246   */\n      0x00\n        /* \"#utility.yul\":1280:1282   */\n      0x20\n        /* \"#utility.yul\":1269:1278   */\n      dup3\n        /* \"#utility.yul\":1265:1283   */\n      add\n        /* \"#utility.yul\":1257:1283   */\n      swap1\n      pop\n        /* \"#utility.yul\":1293:1364   */\n      tag_63\n        /* \"#utility.yul\":1361:1362   */\n      0x00\n        /* \"#utility.yul\":1350:1359   */\n      dup4\n        /* \"#utility.yul\":1346:1363   */\n      add\n        /* \"#utility.yul\":1337:1343   */\n      dup5\n        /* \"#utility.yul\":1293:1364   */\n      tag_38\n      jump\t// in\n    tag_63:\n        /* \"#utility.yul\":1149:1371   */\n      swap3\n      swap2\n      pop\n      pop\n      jump\t// out\n        /* \"#utility.yul\":1377:1491   */\n    tag_39:\n        /* \"#utility.yul\":1444:1450   */\n      0x00\n        /* \"#utility.yul\":1478:1483   */\n      dup2\n        /* \"#utility.yul\":1472:1484   */\n      mload\n        /* \"#utility.yul\":1462:1484   */\n      swap1\n      pop\n        /* \"#utility.yul\":1377:1491   */\n      swap2\n      swap1\n      pop\n      jump\t// out\n        /* \"#utility.yul\":1497:1681   */\n    tag_40:\n        /* \"#utility.yul\":1596:1607   */\n      0x00\n        /* \"#utility.yul\":1630:1636   */\n      dup3\n        /* \"#utility.yul\":1625:1628   */\n      dup3\n        /* \"#utility.yul\":1618:1637   */\n      mstore\n        /* \"#utility.yul\":1670:1674   */\n      0x20\n        /* \"#utility.yul\":1665:1668   */\n      dup3\n        /* \"#utility.yul\":1661:1675   */\n      add\n        /* \"#utility.yul\":1646:1675   */\n      swap1\n      pop\n        /* \"#utility.yul\":1497:1681   */\n      swap3\n      swap2\n      pop\n      pop\n      jump\t// out\n        /* \"#utility.yul\":1687:1819   */\n    tag_41:\n        /* \"#utility.yul\":1754:1758   */\n      0x00\n        /* \"#utility.yul\":1777:1780   */\n      dup2\n        /* \"#utility.yul\":1769:1780   */\n      swap1\n      pop\n        /* \"#utility.yul\":1807:1811   */\n      0x20\n        /* \"#utility.yul\":1802:1805   */\n      dup3\n        /* \"#utility.yul\":1798:1812   */\n      add\n        /* \"#utility.yul\":1790:1812   */\n      swap1\n      pop\n        /* \"#utility.yul\":1687:1819   */\n      swap2\n      swap1\n      pop\n      jump\t// out\n        /* \"#utility.yul\":1825:1933   */\n    tag_42:\n        /* \"#utility.yul\":1902:1926   */\n      tag_68\n        /* \"#utility.yul\":1920:1925   */\n      dup2\n        /* \"#utility.yul\":1902:1926   */\n      tag_35\n      jump\t// in\n    tag_68:\n        /* \"#utility.yul\":1897:1900   */\n      dup3\n        /* \"#utility.yul\":1890:1927   */\n      mstore\n        /* \"#utility.yul\":1825:1933   */\n      pop\n      pop\n      jump\t// out\n        /* \"#utility.yul\":1939:2118   */\n    tag_43:\n        /* \"#utility.yul\":2008:2018   */\n      0x00\n        /* \"#utility.yul\":2029:2075   */\n      tag_70\n        /* \"#utility.yul\":2071:2074   */\n      dup4\n        /* \"#utility.yul\":2063:2069   */\n      dup4\n        /* \"#utility.yul\":2029:2075   */\n      tag_42\n      jump\t// in\n    tag_70:\n        /* \"#utility.yul\":2107:2111   */\n      0x20\n        /* \"#utility.yul\":2102:2105   */\n      dup4\n        /* \"#utility.yul\":2098:2112   */\n      add\n        /* \"#utility.yul\":2084:2112   */\n      swap1\n      pop\n        /* \"#utility.yul\":1939:2118   */\n      swap3\n      swap2\n      pop\n      pop\n      jump\t// out\n        /* \"#utility.yul\":2124:2237   */\n    tag_44:\n        /* \"#utility.yul\":2194:2198   */\n      0x00\n        /* \"#utility.yul\":2226:2230   */\n      0x20\n        /* \"#utility.yul\":2221:2224   */\n      dup3\n        /* \"#utility.yul\":2217:2231   */\n      add\n        /* \"#utility.yul\":2209:2231   */\n      swap1\n      pop\n        /* \"#utility.yul\":2124:2237   */\n      swap2\n      swap1\n      pop\n      jump\t// out\n        /* \"#utility.yul\":2273:3005   */\n    tag_45:\n        /* \"#utility.yul\":2392:2395   */\n      0x00\n        /* \"#utility.yul\":2421:2475   */\n      tag_73\n        /* \"#utility.yul\":2469:2474   */\n      dup3\n        /* \"#utility.yul\":2421:2475   */\n      tag_39\n      jump\t// in\n    tag_73:\n        /* \"#utility.yul\":2491:2577   */\n      tag_74\n        /* \"#utility.yul\":2570:2576   */\n      dup2\n        /* \"#utility.yul\":2565:2568   */\n      dup6\n        /* \"#utility.yul\":2491:2577   */\n      tag_40\n      jump\t// in\n    tag_74:\n        /* \"#utility.yul\":2484:2577   */\n      swap4\n      pop\n        /* \"#utility.yul\":2601:2657   */\n      tag_75\n        /* \"#utility.yul\":2651:2656   */\n      dup4\n        /* \"#utility.yul\":2601:2657   */\n      tag_41\n      jump\t// in\n    tag_75:\n        /* \"#utility.yul\":2680:2687   */\n      dup1\n        /* \"#utility.yul\":2711:2712   */\n      0x00\n        /* \"#utility.yul\":2696:2980   */\n    tag_76:\n        /* \"#utility.yul\":2721:2727   */\n      dup4\n        /* \"#utility.yul\":2718:2719   */\n      dup2\n        /* \"#utility.yul\":2715:2728   */\n      lt\n        /* \"#utility.yul\":2696:2980   */\n      iszero\n      tag_78\n      jumpi\n        /* \"#utility.yul\":2797:2803   */\n      dup2\n        /* \"#utility.yul\":2791:2804   */\n      mload\n        /* \"#utility.yul\":2824:2887   */\n      tag_79\n        /* \"#utility.yul\":2883:2886   */\n      dup9\n        /* \"#utility.yul\":2868:2881   */\n      dup3\n        /* \"#utility.yul\":2824:2887   */\n      tag_43\n      jump\t// in\n    tag_79:\n        /* \"#utility.yul\":2817:2887   */\n      swap8\n      pop\n        /* \"#utility.yul\":2910:2970   */\n      tag_80\n        /* \"#utility.yul\":2963:2969   */\n      dup4\n        /* \"#utility.yul\":2910:2970   */\n      tag_44\n      jump\t// in\n    tag_80:\n        /* \"#utility.yul\":2900:2970   */\n      swap3\n      pop\n        /* \"#utility.yul\":2756:2980   */\n      pop\n        /* \"#utility.yul\":2743:2744   */\n      0x01\n        /* \"#utility.yul\":2740:2741   */\n      dup2\n        /* \"#utility.yul\":2736:2745   */\n      add\n        /* \"#utility.yul\":2731:2745   */\n      swap1\n      pop\n        /* \"#utility.yul\":2696:2980   */\n      jump(tag_76)\n    tag_78:\n        /* \"#utility.yul\":2700:2714   */\n      pop\n        /* \"#utility.yul\":2996:2999   */\n      dup6\n        /* \"#utility.yul\":2989:2999   */\n      swap4\n      pop\n        /* \"#utility.yul\":2397:3005   */\n      pop\n      pop\n      pop\n        /* \"#utility.yul\":2273:3005   */\n      swap3\n      swap2\n      pop\n      pop\n      jump\t// out\n        /* \"#utility.yul\":3011:3384   */\n    tag_15:\n        /* \"#utility.yul\":3154:3158   */\n      0x00\n        /* \"#utility.yul\":3192:3194   */\n      0x20\n        /* \"#utility.yul\":3181:3190   */\n      dup3\n        /* \"#utility.yul\":3177:3195   */\n      add\n        /* \"#utility.yul\":3169:3195   */\n      swap1\n      pop\n        /* \"#utility.yul\":3241:3250   */\n      dup2\n        /* \"#utility.yul\":3235:3239   */\n      dup2\n        /* \"#utility.yul\":3231:3251   */\n      sub\n        /* \"#utility.yul\":3227:3228   */\n      0x00\n        /* \"#utility.yul\":3216:3225   */\n      dup4\n        /* \"#utility.yul\":3212:3229   */\n      add\n        /* \"#utility.yul\":3205:3252   */\n      mstore\n        /* \"#utility.yul\":3269:3377   */\n      tag_82\n        /* \"#utility.yul\":3372:3376   */\n      dup2\n        /* \"#utility.yul\":3363:3369   */\n      dup5\n        /* \"#utility.yul\":3269:3377   */\n      tag_45\n      jump\t// in\n    tag_82:\n        /* \"#utility.yul\":3261:3377   */\n      swap1\n      pop\n        /* \"#utility.yul\":3011:3384   */\n      swap3\n      swap2\n      pop\n      pop\n      jump\t// out\n        /* \"#utility.yul\":3390:3570   */\n    tag_24:\n        /* \"#utility.yul\":3438:3515   */\n      0x4e487b7100000000000000000000000000000000000000000000000000000000\n        /* \"#utility.yul\":3435:3436   */\n      0x00\n        /* \"#utility.yul\":3428:3516   */\n      mstore\n        /* \"#utility.yul\":3535:3539   */\n      0x41\n        /* \"#utility.yul\":3532:3533   */\n      0x04\n        /* \"#utility.yul\":3525:3540   */\n      mstore\n        /* \"#utility.yul\":3559:3563   */\n      0x24\n        /* \"#utility.yul\":3556:3557   */\n      0x00\n        /* \"#utility.yul\":3549:3564   */\n      revert\n\n    auxdata: 0xa2646970667358221220f45b7c5c102ba2143a700e59d5e6dd250c2785516bfe85d11547c20ea41c969264736f6c634300081c0033\n}\n",
				"bytecode": {
					"linkReferences": {},
					"object": "6080604052348015600e575f5ffd5b506040518060a00160405280600161ffff168152602001600261ffff168152602001602261ffff168152602001603861ffff16815260200161031161ffff168152505f906005605d9291906062565b5060c7565b828054828255905f5260205f20908101928215609f579160200282015b82811115609e578251829061ffff16905591602001919060010190607f565b5b50905060aa919060ae565b5090565b5b8082111560c3575f815f90555060010160af565b5090565b61039d806100d45f395ff3fe608060405234801561000f575f5ffd5b506004361061003f575f3560e01c80631cee0a181461004357806341f654f714610073578063fb92315a14610091575b5f5ffd5b61005d60048036038101906100589190610210565b6100ad565b60405161006a919061024a565b60405180910390f35b61007b6100e9565b604051610088919061031a565b60405180910390f35b6100ab60048036038101906100a69190610210565b610195565b005b5f5f5f90505f816040516020016100c4919061024a565b6040516020818303038152906040528051906020012090508381015492505050919050565b60605f5f90505f815490508067ffffffffffffffff81111561010e5761010d61033a565b5b60405190808252806020026020018201604052801561013c5781602001602082028036833780820191505090505b5092505f82604051602001610151919061024a565b6040516020818303038152906040528051906020012090505f5b8281101561018e578082015480602083026020018701525060018101905061016b565b5050505090565b5f5f90505f815490505f826040516020016101b0919061024a565b604051602081830303815290604052805190602001209050838282015560018201835550505050565b5f5ffd5b5f819050919050565b6101ef816101dd565b81146101f9575f5ffd5b50565b5f8135905061020a816101e6565b92915050565b5f60208284031215610225576102246101d9565b5b5f610232848285016101fc565b91505092915050565b610244816101dd565b82525050565b5f60208201905061025d5f83018461023b565b92915050565b5f81519050919050565b5f82825260208201905092915050565b5f819050602082019050919050565b610295816101dd565b82525050565b5f6102a6838361028c565b60208301905092915050565b5f602082019050919050565b5f6102c882610263565b6102d2818561026d565b93506102dd8361027d565b805f5b8381101561030d5781516102f4888261029b565b97506102ff836102b2565b9250506001810190506102e0565b5085935050505092915050565b5f6020820190508181035f83015261033281846102be565b905092915050565b7f4e487b71000000000000000000000000000000000000000000000000000000005f52604160045260245ffdfea2646970667358221220f45b7c5c102ba2143a700e59d5e6dd250c2785516bfe85d11547c20ea41c969264736f6c634300081c0033",
					"opcodes": "PUSH1 0x80 PUSH1 0x40 MSTORE CALLVALUE DUP1 ISZERO PUSH1 0xE JUMPI PUSH0 PUSH0 REVERT JUMPDEST POP PUSH1 0x40 MLOAD DUP1 PUSH1 0xA0 ADD PUSH1 0x40 MSTORE DUP1 PUSH1 0x1 PUSH2 0xFFFF AND DUP2 MSTORE PUSH1 0x20 ADD PUSH1 0x2 PUSH2 0xFFFF AND DUP2 MSTORE PUSH1 0x20 ADD PUSH1 0x22 PUSH2 0xFFFF AND DUP2 MSTORE PUSH1 0x20 ADD PUSH1 0x38 PUSH2 0xFFFF AND DUP2 MSTORE PUSH1 0x20 ADD PUSH2 0x311 PUSH2 0xFFFF AND DUP2 MSTORE POP PUSH0 SWAP1 PUSH1 0x5 PUSH1 0x5D SWAP3 SWAP2 SWAP1 PUSH1 0x62 JUMP JUMPDEST POP PUSH1 0xC7 JUMP JUMPDEST DUP3 DUP1 SLOAD DUP3 DUP3 SSTORE SWAP1 PUSH0 MSTORE PUSH1 0x20 PUSH0 KECCAK256 SWAP1 DUP2 ADD SWAP3 DUP3 ISZERO PUSH1 0x9F JUMPI SWAP2 PUSH1 0x20 MUL DUP3 ADD JUMPDEST DUP3 DUP2 GT ISZERO PUSH1 0x9E JUMPI DUP3 MLOAD DUP3 SWAP1 PUSH2 0xFFFF AND SWAP1 SSTORE SWAP2 PUSH1 0x20 ADD SWAP2 SWAP1 PUSH1 0x1 ADD SWAP1 PUSH1 0x7F JUMP JUMPDEST JUMPDEST POP SWAP1 POP PUSH1 0xAA SWAP2 SWAP1 PUSH1 0xAE JUMP JUMPDEST POP SWAP1 JUMP JUMPDEST JUMPDEST DUP1 DUP3 GT ISZERO PUSH1 0xC3 JUMPI PUSH0 DUP2 PUSH0 SWAP1 SSTORE POP PUSH1 0x1 ADD PUSH1 0xAF JUMP JUMPDEST POP SWAP1 JUMP JUMPDEST PUSH2 0x39D DUP1 PUSH2 0xD4 PUSH0 CODECOPY PUSH0 RETURN INVALID PUSH1 0x80 PUSH1 0x40 MSTORE CALLVALUE DUP1 ISZERO PUSH2 0xF JUMPI PUSH0 PUSH0 REVERT JUMPDEST POP PUSH1 0x4 CALLDATASIZE LT PUSH2 0x3F JUMPI PUSH0 CALLDATALOAD PUSH1 0xE0 SHR DUP1 PUSH4 0x1CEE0A18 EQ PUSH2 0x43 JUMPI DUP1 PUSH4 0x41F654F7 EQ PUSH2 0x73 JUMPI DUP1 PUSH4 0xFB92315A EQ PUSH2 0x91 JUMPI JUMPDEST PUSH0 PUSH0 REVERT JUMPDEST PUSH2 0x5D PUSH1 0x4 DUP1 CALLDATASIZE SUB DUP2 ADD SWAP1 PUSH2 0x58 SWAP2 SWAP1 PUSH2 0x210 JUMP JUMPDEST PUSH2 0xAD JUMP JUMPDEST PUSH1 0x40 MLOAD PUSH2 0x6A SWAP2 SWAP1 PUSH2 0x24A JUMP JUMPDEST PUSH1 0x40 MLOAD DUP1 SWAP2 SUB SWAP1 RETURN JUMPDEST PUSH2 0x7B PUSH2 0xE9 JUMP JUMPDEST PUSH1 0x40 MLOAD PUSH2 0x88 SWAP2 SWAP1 PUSH2 0x31A JUMP JUMPDEST PUSH1 0x40 MLOAD DUP1 SWAP2 SUB SWAP1 RETURN JUMPDEST PUSH2 0xAB PUSH1 0x4 DUP1 CALLDATASIZE SUB DUP2 ADD SWAP1 PUSH2 0xA6 SWAP2 SWAP1 PUSH2 0x210 JUMP JUMPDEST PUSH2 0x195 JUMP JUMPDEST STOP JUMPDEST PUSH0 PUSH0 PUSH0 SWAP1 POP PUSH0 DUP2 PUSH1 0x40 MLOAD PUSH1 0x20 ADD PUSH2 0xC4 SWAP2 SWAP1 PUSH2 0x24A JUMP JUMPDEST PUSH1 0x40 MLOAD PUSH1 0x20 DUP2 DUP4 SUB SUB DUP2 MSTORE SWAP1 PUSH1 0x40 MSTORE DUP1 MLOAD SWAP1 PUSH1 0x20 ADD KECCAK256 SWAP1 POP DUP4 DUP2 ADD SLOAD SWAP3 POP POP POP SWAP2 SWAP1 POP JUMP JUMPDEST PUSH1 0x60 PUSH0 PUSH0 SWAP1 POP PUSH0 DUP2 SLOAD SWAP1 POP DUP1 PUSH8 0xFFFFFFFFFFFFFFFF DUP2 GT ISZERO PUSH2 0x10E JUMPI PUSH2 0x10D PUSH2 0x33A JUMP JUMPDEST JUMPDEST PUSH1 0x40 MLOAD SWAP1 DUP1 DUP3 MSTORE DUP1 PUSH1 0x20 MUL PUSH1 0x20 ADD DUP3 ADD PUSH1 0x40 MSTORE DUP1 ISZERO PUSH2 0x13C JUMPI DUP2 PUSH1 0x20 ADD PUSH1 0x20 DUP3 MUL DUP1 CALLDATASIZE DUP4 CALLDATACOPY DUP1 DUP3 ADD SWAP2 POP POP SWAP1 POP JUMPDEST POP SWAP3 POP PUSH0 DUP3 PUSH1 0x40 MLOAD PUSH1 0x20 ADD PUSH2 0x151 SWAP2 SWAP1 PUSH2 0x24A JUMP JUMPDEST PUSH1 0x40 MLOAD PUSH1 0x20 DUP2 DUP4 SUB SUB DUP2 MSTORE SWAP1 PUSH1 0x40 MSTORE DUP1 MLOAD SWAP1 PUSH1 0x20 ADD KECCAK256 SWAP1 POP PUSH0 JUMPDEST DUP3 DUP2 LT ISZERO PUSH2 0x18E JUMPI DUP1 DUP3 ADD SLOAD DUP1 PUSH1 0x20 DUP4 MUL PUSH1 0x20 ADD DUP8 ADD MSTORE POP PUSH1 0x1 DUP2 ADD SWAP1 POP PUSH2 0x16B JUMP JUMPDEST POP POP POP POP SWAP1 JUMP JUMPDEST PUSH0 PUSH0 SWAP1 POP PUSH0 DUP2 SLOAD SWAP1 POP PUSH0 DUP3 PUSH1 0x40 MLOAD PUSH1 0x20 ADD PUSH2 0x1B0 SWAP2 SWAP1 PUSH2 0x24A JUMP JUMPDEST PUSH1 0x40 MLOAD PUSH1 0x20 DUP2 DUP4 SUB SUB DUP2 MSTORE SWAP1 PUSH1 0x40 MSTORE DUP1 MLOAD SWAP1 PUSH1 0x20 ADD KECCAK256 SWAP1 POP DUP4 DUP3 DUP3 ADD SSTORE PUSH1 0x1 DUP3 ADD DUP4 SSTORE POP POP POP POP JUMP JUMPDEST PUSH0 PUSH0 REVERT JUMPDEST PUSH0 DUP2 SWAP1 POP SWAP2 SWAP1 POP JUMP JUMPDEST PUSH2 0x1EF DUP2 PUSH2 0x1DD JUMP JUMPDEST DUP2 EQ PUSH2 0x1F9 JUMPI PUSH0 PUSH0 REVERT JUMPDEST POP JUMP JUMPDEST PUSH0 DUP2 CALLDATALOAD SWAP1 POP PUSH2 0x20A DUP2 PUSH2 0x1E6 JUMP JUMPDEST SWAP3 SWAP2 POP POP JUMP JUMPDEST PUSH0 PUSH1 0x20 DUP3 DUP5 SUB SLT ISZERO PUSH2 0x225 JUMPI PUSH2 0x224 PUSH2 0x1D9 JUMP JUMPDEST JUMPDEST PUSH0 PUSH2 0x232 DUP5 DUP3 DUP6 ADD PUSH2 0x1FC JUMP JUMPDEST SWAP2 POP POP SWAP3 SWAP2 POP POP JUMP JUMPDEST PUSH2 0x244 DUP2 PUSH2 0x1DD JUMP JUMPDEST DUP3 MSTORE POP POP JUMP JUMPDEST PUSH0 PUSH1 0x20 DUP3 ADD SWAP1 POP PUSH2 0x25D PUSH0 DUP4 ADD DUP5 PUSH2 0x23B JUMP JUMPDEST SWAP3 SWAP2 POP POP JUMP JUMPDEST PUSH0 DUP2 MLOAD SWAP1 POP SWAP2 SWAP1 POP JUMP JUMPDEST PUSH0 DUP3 DUP3 MSTORE PUSH1 0x20 DUP3 ADD SWAP1 POP SWAP3 SWAP2 POP POP JUMP JUMPDEST PUSH0 DUP2 SWAP1 POP PUSH1 0x20 DUP3 ADD SWAP1 POP SWAP2 SWAP1 POP JUMP JUMPDEST PUSH2 0x295 DUP2 PUSH2 0x1DD JUMP JUMPDEST DUP3 MSTORE POP POP JUMP JUMPDEST PUSH0 PUSH2 0x2A6 DUP4 DUP4 PUSH2 0x28C JUMP JUMPDEST PUSH1 0x20 DUP4 ADD SWAP1 POP SWAP3 SWAP2 POP POP JUMP JUMPDEST PUSH0 PUSH1 0x20 DUP3 ADD SWAP1 POP SWAP2 SWAP1 POP JUMP JUMPDEST PUSH0 PUSH2 0x2C8 DUP3 PUSH2 0x263 JUMP JUMPDEST PUSH2 0x2D2 DUP2 DUP6 PUSH2 0x26D JUMP JUMPDEST SWAP4 POP PUSH2 0x2DD DUP4 PUSH2 0x27D JUMP JUMPDEST DUP1 PUSH0 JUMPDEST DUP4 DUP2 LT ISZERO PUSH2 0x30D JUMPI DUP2 MLOAD PUSH2 0x2F4 DUP9 DUP3 PUSH2 0x29B JUMP JUMPDEST SWAP8 POP PUSH2 0x2FF DUP4 PUSH2 0x2B2 JUMP JUMPDEST SWAP3 POP POP PUSH1 0x1 DUP2 ADD SWAP1 POP PUSH2 0x2E0 JUMP JUMPDEST POP DUP6 SWAP4 POP POP POP POP SWAP3 SWAP2 POP POP JUMP JUMPDEST PUSH0 PUSH1 0x20 DUP3 ADD SWAP1 POP DUP2 DUP2 SUB PUSH0 DUP4 ADD MSTORE PUSH2 0x332 DUP2 DUP5 PUSH2 0x2BE JUMP JUMPDEST SWAP1 POP SWAP3 SWAP2 POP POP JUMP JUMPDEST PUSH32 0x4E487B7100000000000000000000000000000000000000000000000000000000 PUSH0 MSTORE PUSH1 0x41 PUSH1 0x4 MSTORE PUSH1 0x24 PUSH0 REVERT INVALID LOG2 PUSH5 0x6970667358 0x22 SLT KECCAK256 DELEGATECALL JUMPDEST PUSH29 0x5C102BA2143A700E59D5E6DD250C2785516BFE85D11547C20EA41C9692 PUSH5 0x736F6C6343 STOP ADDMOD SHR STOP CALLER "
				},
				"gasEstimates": {
					"creation": {
						"codeDepositCost": "185000",
						"executionCost": "infinite",
						"totalCost": "infinite"
					},
					"external": {
						"addArr(uint256)": "infinite",
						"readAll()": "infinite",
						"readArr(uint256)": "infinite"
					}
				},
				"methodIdentifiers": {
					"addArr(uint256)": "fb92315a",
					"readAll()": "41f654f7",
					"readArr(uint256)": "1cee0a18"
				}
			},
			"storageLayout": {
				"storage": [
					{
						"astId": 4,
						"contract": "src/Arrays/dynamic.sol:DynamicArray",
						"label": "values",
						"offset": 0,
						"slot": "0",
						"type": "t_array(t_uint256)dyn_storage"
					}
				],
				"types": {
					"t_array(t_uint256)dyn_storage": {
						"base": "t_uint256",
						"encoding": "dynamic_array",
						"label": "uint256[]",
						"numberOfBytes": "32"
					},
					"t_uint256": {
						"encoding": "inplace",
						"label": "uint256",
						"numberOfBytes": "32"
					}
				}
			},
			"userdoc": {
				"kind": "user",
				"methods": {},
				"version": 1
			}
		}
	}
}