{
	"data": {
		"bytecode": {
			"linkReferences": {},
			"object": "6080604052604051806080016040528061012c61ffff1681526020016101f461ffff16815260200161032061ffff16815260200160c861ffff168152505f90600460499291906059565b503480156054575f5ffd5b5060b3565b8260048101928215608b579160200282015b82811115608a578251829061ffff16905591602001919060010190606b565b5b50905060969190609a565b5090565b5b8082111560af575f815f905550600101609b565b5090565b610347806100c05f395ff3fe608060405234801561000f575f5ffd5b506004361061003f575f3560e01c806337ebbc0314610043578063a72016f914610073578063c71ba63b14610091575b5f5ffd5b61005d6004803603810190610058919061017c565b6100ad565b60405161006a91906101b6565b60405180910390f35b61007b6100bb565b6040516100889190610286565b60405180910390f35b6100ab60048036038101906100a691906102a6565b61013a565b005b5f5f82810154915050919050565b60605f600467ffffffffffffffff8111156100d9576100d86102e4565b5b6040519080825280602002602001820160405280156101075781602001602082028036833780820191505090505b5090505f5f5b6004811015610131578082015480602083026020860101525060018101905061010d565b50508091505090565b5f8181840155505050565b5f5ffd5b5f819050919050565b61015b81610149565b8114610165575f5ffd5b50565b5f8135905061017681610152565b92915050565b5f6020828403121561019157610190610145565b5b5f61019e84828501610168565b91505092915050565b6101b081610149565b82525050565b5f6020820190506101c95f8301846101a7565b92915050565b5f81519050919050565b5f82825260208201905092915050565b5f819050602082019050919050565b61020181610149565b82525050565b5f61021283836101f8565b60208301905092915050565b5f602082019050919050565b5f610234826101cf565b61023e81856101d9565b9350610249836101e9565b805f5b838110156102795781516102608882610207565b975061026b8361021e565b92505060018101905061024c565b5085935050505092915050565b5f6020820190508181035f83015261029e818461022a565b905092915050565b5f5f604083850312156102bc576102bb610145565b5b5f6102c985828601610168565b92505060206102da85828601610168565b9150509250929050565b7f4e487b71000000000000000000000000000000000000000000000000000000005f52604160045260245ffdfea26469706673582212204e3a53677df35d128ba734620b62f4d1842a7d9372c75f091df1a5fbf654eb7e64736f6c634300081c0033",
			"opcodes": "PUSH1 0x80 PUSH1 0x40 MSTORE PUSH1 0x40 MLOAD DUP1 PUSH1 0x80 ADD PUSH1 0x40 MSTORE DUP1 PUSH2 0x12C PUSH2 0xFFFF AND DUP2 MSTORE PUSH1 0x20 ADD PUSH2 0x1F4 PUSH2 0xFFFF AND DUP2 MSTORE PUSH1 0x20 ADD PUSH2 0x320 PUSH2 0xFFFF AND DUP2 MSTORE PUSH1 0x20 ADD PUSH1 0xC8 PUSH2 0xFFFF AND DUP2 MSTORE POP PUSH0 SWAP1 PUSH1 0x4 PUSH1 0x49 SWAP3 SWAP2 SWAP1 PUSH1 0x59 JUMP JUMPDEST POP CALLVALUE DUP1 ISZERO PUSH1 0x54 JUMPI PUSH0 PUSH0 REVERT JUMPDEST POP PUSH1 0xB3 JUMP JUMPDEST DUP3 PUSH1 0x4 DUP2 ADD SWAP3 DUP3 ISZERO PUSH1 0x8B JUMPI SWAP2 PUSH1 0x20 MUL DUP3 ADD JUMPDEST DUP3 DUP2 GT ISZERO PUSH1 0x8A JUMPI DUP3 MLOAD DUP3 SWAP1 PUSH2 0xFFFF AND SWAP1 SSTORE SWAP2 PUSH1 0x20 ADD SWAP2 SWAP1 PUSH1 0x1 ADD SWAP1 PUSH1 0x6B JUMP JUMPDEST JUMPDEST POP SWAP1 POP PUSH1 0x96 SWAP2 SWAP1 PUSH1 0x9A JUMP JUMPDEST POP SWAP1 JUMP JUMPDEST JUMPDEST DUP1 DUP3 GT ISZERO PUSH1 0xAF JUMPI PUSH0 DUP2 PUSH0 SWAP1 SSTORE POP PUSH1 0x1 ADD PUSH1 0x9B JUMP JUMPDEST POP SWAP1 JUMP JUMPDEST PUSH2 0x347 DUP1 PUSH2 0xC0 PUSH0 CODECOPY PUSH0 RETURN INVALID PUSH1 0x80 PUSH1 0x40 MSTORE CALLVALUE DUP1 ISZERO PUSH2 0xF JUMPI PUSH0 PUSH0 REVERT JUMPDEST POP PUSH1 0x4 CALLDATASIZE LT PUSH2 0x3F JUMPI PUSH0 CALLDATALOAD PUSH1 0xE0 SHR DUP1 PUSH4 0x37EBBC03 EQ PUSH2 0x43 JUMPI DUP1 PUSH4 0xA72016F9 EQ PUSH2 0x73 JUMPI DUP1 PUSH4 0xC71BA63B EQ PUSH2 0x91 JUMPI JUMPDEST PUSH0 PUSH0 REVERT JUMPDEST PUSH2 0x5D PUSH1 0x4 DUP1 CALLDATASIZE SUB DUP2 ADD SWAP1 PUSH2 0x58 SWAP2 SWAP1 PUSH2 0x17C JUMP JUMPDEST PUSH2 0xAD JUMP JUMPDEST PUSH1 0x40 MLOAD PUSH2 0x6A SWAP2 SWAP1 PUSH2 0x1B6 JUMP JUMPDEST PUSH1 0x40 MLOAD DUP1 SWAP2 SUB SWAP1 RETURN JUMPDEST PUSH2 0x7B PUSH2 0xBB JUMP JUMPDEST PUSH1 0x40 MLOAD PUSH2 0x88 SWAP2 SWAP1 PUSH2 0x286 JUMP JUMPDEST PUSH1 0x40 MLOAD DUP1 SWAP2 SUB SWAP1 RETURN JUMPDEST PUSH2 0xAB PUSH1 0x4 DUP1 CALLDATASIZE SUB DUP2 ADD SWAP1 PUSH2 0xA6 SWAP2 SWAP1 PUSH2 0x2A6 JUMP JUMPDEST PUSH2 0x13A JUMP JUMPDEST STOP JUMPDEST PUSH0 PUSH0 DUP3 DUP2 ADD SLOAD SWAP2 POP POP SWAP2 SWAP1 POP JUMP JUMPDEST PUSH1 0x60 PUSH0 PUSH1 0x4 PUSH8 0xFFFFFFFFFFFFFFFF DUP2 GT ISZERO PUSH2 0xD9 JUMPI PUSH2 0xD8 PUSH2 0x2E4 JUMP JUMPDEST JUMPDEST PUSH1 0x40 MLOAD SWAP1 DUP1 DUP3 MSTORE DUP1 PUSH1 0x20 MUL PUSH1 0x20 ADD DUP3 ADD PUSH1 0x40 MSTORE DUP1 ISZERO PUSH2 0x107 JUMPI DUP2 PUSH1 0x20 ADD PUSH1 0x20 DUP3 MUL DUP1 CALLDATASIZE DUP4 CALLDATACOPY DUP1 DUP3 ADD SWAP2 POP POP SWAP1 POP JUMPDEST POP SWAP1 POP PUSH0 PUSH0 JUMPDEST PUSH1 0x4 DUP2 LT ISZERO PUSH2 0x131 JUMPI DUP1 DUP3 ADD SLOAD DUP1 PUSH1 0x20 DUP4 MUL PUSH1 0x20 DUP7 ADD ADD MSTORE POP PUSH1 0x1 DUP2 ADD SWAP1 POP PUSH2 0x10D JUMP JUMPDEST POP POP DUP1 SWAP2 POP POP SWAP1 JUMP JUMPDEST PUSH0 DUP2 DUP2 DUP5 ADD SSTORE POP POP POP JUMP JUMPDEST PUSH0 PUSH0 REVERT JUMPDEST PUSH0 DUP2 SWAP1 POP SWAP2 SWAP1 POP JUMP JUMPDEST PUSH2 0x15B DUP2 PUSH2 0x149 JUMP JUMPDEST DUP2 EQ PUSH2 0x165 JUMPI PUSH0 PUSH0 REVERT JUMPDEST POP JUMP JUMPDEST PUSH0 DUP2 CALLDATALOAD SWAP1 POP PUSH2 0x176 DUP2 PUSH2 0x152 JUMP JUMPDEST SWAP3 SWAP2 POP POP JUMP JUMPDEST PUSH0 PUSH1 0x20 DUP3 DUP5 SUB SLT ISZERO PUSH2 0x191 JUMPI PUSH2 0x190 PUSH2 0x145 JUMP JUMPDEST JUMPDEST PUSH0 PUSH2 0x19E DUP5 DUP3 DUP6 ADD PUSH2 0x168 JUMP JUMPDEST SWAP2 POP POP SWAP3 SWAP2 POP POP JUMP JUMPDEST PUSH2 0x1B0 DUP2 PUSH2 0x149 JUMP JUMPDEST DUP3 MSTORE POP POP JUMP JUMPDEST PUSH0 PUSH1 0x20 DUP3 ADD SWAP1 POP PUSH2 0x1C9 PUSH0 DUP4 ADD DUP5 PUSH2 0x1A7 JUMP JUMPDEST SWAP3 SWAP2 POP POP JUMP JUMPDEST PUSH0 DUP2 MLOAD SWAP1 POP SWAP2 SWAP1 POP JUMP JUMPDEST PUSH0 DUP3 DUP3 MSTORE PUSH1 0x20 DUP3 ADD SWAP1 POP SWAP3 SWAP2 POP POP JUMP JUMPDEST PUSH0 DUP2 SWAP1 POP PUSH1 0x20 DUP3 ADD SWAP1 POP SWAP2 SWAP1 POP JUMP JUMPDEST PUSH2 0x201 DUP2 PUSH2 0x149 JUMP JUMPDEST DUP3 MSTORE POP POP JUMP JUMPDEST PUSH0 PUSH2 0x212 DUP4 DUP4 PUSH2 0x1F8 JUMP JUMPDEST PUSH1 0x20 DUP4 ADD SWAP1 POP SWAP3 SWAP2 POP POP JUMP JUMPDEST PUSH0 PUSH1 0x20 DUP3 ADD SWAP1 POP SWAP2 SWAP1 POP JUMP JUMPDEST PUSH0 PUSH2 0x234 DUP3 PUSH2 0x1CF JUMP JUMPDEST PUSH2 0x23E DUP2 DUP6 PUSH2 0x1D9 JUMP JUMPDEST SWAP4 POP PUSH2 0x249 DUP4 PUSH2 0x1E9 JUMP JUMPDEST DUP1 PUSH0 JUMPDEST DUP4 DUP2 LT ISZERO PUSH2 0x279 JUMPI DUP2 MLOAD PUSH2 0x260 DUP9 DUP3 PUSH2 0x207 JUMP JUMPDEST SWAP8 POP PUSH2 0x26B DUP4 PUSH2 0x21E JUMP JUMPDEST SWAP3 POP POP PUSH1 0x1 DUP2 ADD SWAP1 POP PUSH2 0x24C JUMP JUMPDEST POP DUP6 SWAP4 POP POP POP POP SWAP3 SWAP2 POP POP JUMP JUMPDEST PUSH0 PUSH1 0x20 DUP3 ADD SWAP1 POP DUP2 DUP2 SUB PUSH0 DUP4 ADD MSTORE PUSH2 0x29E DUP2 DUP5 PUSH2 0x22A JUMP JUMPDEST SWAP1 POP SWAP3 SWAP2 POP POP JUMP JUMPDEST PUSH0 PUSH0 PUSH1 0x40 DUP4 DUP6 SUB SLT ISZERO PUSH2 0x2BC JUMPI PUSH2 0x2BB PUSH2 0x145 JUMP JUMPDEST JUMPDEST PUSH0 PUSH2 0x2C9 DUP6 DUP3 DUP7 ADD PUSH2 0x168 JUMP JUMPDEST SWAP3 POP POP PUSH1 0x20 PUSH2 0x2DA DUP6 DUP3 DUP7 ADD PUSH2 0x168 JUMP JUMPDEST SWAP2 POP POP SWAP3 POP SWAP3 SWAP1 POP JUMP JUMPDEST PUSH32 0x4E487B7100000000000000000000000000000000000000000000000000000000 PUSH0 MSTORE PUSH1 0x41 PUSH1 0x4 MSTORE PUSH1 0x24 PUSH0 REVERT INVALID LOG2 PUSH5 0x6970667358 0x22 SLT KECCAK256 0x4E GASPRICE MSTORE8 PUSH8 0x7DF35D128BA73462 SIGNEXTEND PUSH3 0xF4D184 0x2A PUSH30 0x9372C75F091DF1A5FBF654EB7E64736F6C634300081C0033000000000000 "
		},
		"gasEstimates": {
			"creation": {
				"codeDepositCost": "167800",
				"executionCost": "infinite",
				"totalCost": "infinite"
			},
			"external": {
				"readAllData()": "infinite",
				"readData(uint256)": "infinite",
				"writeData(uint256,uint256)": "infinite"
			}
		},
		"methodIdentifiers": {
			"readAllData()": "a72016f9",
			"readData(uint256)": "37ebbc03",
			"writeData(uint256,uint256)": "c71ba63b"
		}
	},
	"abi": [
		{
			"inputs": [],
			"name": "readAllData",
			"outputs": [
				{
					"internalType": "uint256[]",
					"name": "",
					"type": "uint256[]"
				}
			],
			"stateMutability": "view",
			"type": "function"
		},
		{
			"inputs": [
				{
					"internalType": "uint256",
					"name": "index",
					"type": "uint256"
				}
			],
			"name": "readData",
			"outputs": [
				{
					"internalType": "uint256",
					"name": "res",
					"type": "uint256"
				}
			],
			"stateMutability": "view",
			"type": "function"
		},
		{
			"inputs": [
				{
					"internalType": "uint256",
					"name": "index",
					"type": "uint256"
				},
				{
					"internalType": "uint256",
					"name": "_data",
					"type": "uint256"
				}
			],
			"name": "writeData",
			"outputs": [],
			"stateMutability": "nonpayable",
			"type": "function"
		}
	]
}